:020000040800F2
:100000004008002089010008C3110008BF11000842
:10001000C11100087F030008DD1600080000000081
:10002000000000000000000000000000B512000801
:10003000FD0300080000000025120008E11300087D
:10004000A3010008A3010008A3010008A301000800
:10005000A3010008A3010008A3010008A3010008F0
:10006000A3010008A3010008A3010008A3010008E0
:10007000A3010008A3010008A3010008A3010008D0
:10008000A3010008A3010008A3010008A3010008C0
:10009000A3010008A3010008A3010008A3010008B0
:1000A000A3010008A3010008A3010008A3010008A0
:1000B000A3010008A3010008A3010008A301000890
:1000C000A3010008A3010008A3010008A301000880
:1000D000A3010008C5160008D1160008A3010008F6
:1000E000A3010008A3010008A301000800F002F822
:1000F00000F03AF80AA090E8000C82448344AAF188
:100100000107DA4501D100F02FF8AFF2090EBAE885
:100110000F0013F0010F18BFFB1A43F0010318473B
:10012000E01C0000001D0000103A24BF78C878C110
:10013000FAD8520724BF30C830C144BF04680C60ED
:10014000704700000023002400250026103A28BF35
:1001500078C1FBD8520728BF30C148BF0B60704739
:100160001FB51FBD10B510BD00F0CFF81146FFF749
:10017000F7FF01F023FC00F0EDF803B4FFF7F2FF06
:1001800003BC00F0F5F80000094880470948004723
:10019000FEE7FEE7FEE7FEE7FEE7FEE7FEE7FEE737
:1001A000FEE7FEE704480549054A064B7047000094
:1001B00043140008ED000008400200204008002021
:1001C0004004002040040020032A40F2308010F058
:1001D000030C00F0158011F8013BBCF1020F6244E2
:1001E00098BF11F801CB00F8013B38BF11F8013B73
:1001F000A2F1040298BF00F801CB38BF00F8013B20
:1002000011F0030300F02580083AC0F0088051F88F
:10021000043B083A51F804CBA0E80810F5E7121D9A
:100220005CBF51F8043B40F8043BAFF30080D207B9
:1002300024BF11F8013B11F801CB48BF11F8012B85
:1002400024BF00F8013B00F801CB48BF00F8012BA8
:10025000704710B5203AC0F00B80B1E81850203A32
:10026000A0E81850B1E81850A0E81850BFF4F5AF56
:100270005FEA027C24BFB1E81850A0E8185044BFE0
:1002800018C918C0BDE810405FEA827C24BF51F84D
:10029000043B40F8043B08BF7047D20728BF31F841
:1002A000023B48BF11F8012B28BF20F8023B48BF92
:1002B00000F8012B70474FF0000200B5134694463A
:1002C0009646203922BFA0E80C50A0E80C50B1F1AE
:1002D0002001BFF4F7AF090728BFA0E80C5048BFC2
:1002E0000CC05DF804EB890028BF40F8042B08BF60
:1002F000704748BF20F8022B11F0804F18BF00F85C
:10030000012B7047704770477047754600F02CF816
:10031000AE4605006946534620F00700854618B0F2
:1003200020B5FFF73FFFBDE820404FF000064FF03B
:1003300000074FF000084FF0000B21F00701AC461A
:10034000ACE8C009ACE8C009ACE8C009ACE8C00939
:100350008D46704710B50446AFF300802046BDE8D7
:100360001040FFF70ABF000000487047E00100207E
:1003700001491820ABBEFEE7260002007047FEE7E9
:100380002DE9F04100251B4E0446A84601272078A0
:1003900097280BD160194078F0B91648377430307F
:1003A00000F042FFC6F8288086F80E802078982852
:1003B00005D11048F7710621303001F06DFB20782F
:1003C000992809D1B07B38B10A48303000F074FF69
:1003D0000848303000F0F6FE6D1C052DD7DB207884
:1003E0005A2804D1BDE8F041034801F069BBBDE8DB
:1003F000F081000000000020D8000020704710B5F8
:1004000090F821100022022905D00421816380F890
:100410002020012010BD01680B6823F00E030B6043
:1004200001680B6823F001030B6090F84030C46B47
:10043000012101FA03F3636080F8211080F8202085
:10044000104610BD10B590F821100024022903D0E9
:100450000421816301243DE001680A6822F00E0254
:100460000A6001680A6822F001020A601A4A0168FB
:10047000914201D1012121E0174A1432914201D168
:1004800010211BE0144A2832914201D1891515E050
:10049000114A3C32914201D189140FE00E4A503288
:1004A000914202D14FF4803108E00B4A643291420C
:1004B00002D14FF4801101E04FF08071064A083AF2
:1004C0005160012180F82110002180F82010416B3B
:1004D00001B18847204610BD080002402DE9F84FC1
:1004E000DFF8B8910024A9F1040B23460F2709F186
:1004F000040AABF1040EC9E00125A5402A40AA4236
:100500007DD1674ED1F804C0ACEB0608B44532D0BB
:1005100014DCBCF1030F3AD009DCBCF1000F2AD087
:10052000BCF1010F1CD0BCF1020F31D11DE0BCF1B8
:10053000110F17D0BCF1120F2AD119E0B8F5881F9E
:1005400019D006DCB8F5803F15D0B8F5801F1FD153
:1005500011E0B8F5001F0ED0B8F5041F18D10AE05D
:10056000CB6815E0CB681B1D12E0CB6808330FE0A9
:10057000CB680C330CE08B682BB1012B4FF00803D8
:1005800003D0456104E0042302E0056100E000239C
:10059000FF2A01D8064601E000F104064FEA84056F
:1005A00001D9A5F12005D6F8008007FA05FC28EA54
:1005B0000C0803FA05F548EA0508C6F800804D68FE
:1005C000ED0062D5374DAE6946F00106AE61AD690A
:1005D00024F0030605F001050095334D06EB050CEC
:1005E000DCF80850A607360F07FA06F825EA0805D2
:1005F000DFF8B880404503D14FF0000817E044E031
:10060000DFF8AC80404502D14FF001080FE0DFF881
:10061000A480404502D14FF0020808E0DFF898803E
:10062000404502D14FF0030801E04FF0040808FAFA
:1006300006F848EA0508CCF808804D68D9F800604B
:10064000ED024D4601D5164300E096432E604D68FD
:10065000DAF80060AD02554601D5164300E0964336
:100660002E604D68DBF80060AD035D4601D5164392
:1006700000E096432E604D68DEF80060ED0375469D
:1006800001D5164300E096432E60641C0D682A468F
:10069000E5407FF431AFBDE8F88F00000804014069
:1006A000000011100010024000000140000801404D
:1006B000000C014000100140001401400148806816
:1006C0007047000038000020024881680278114419
:1006D0008160704738000020074810B5016841F07C
:1006E00010010160032000F075F80F2000F006F8FB
:1006F00000F024F8002010BD0020024070B50D4D20
:1007000004464FF47A712878B1FBF0F00A49096881
:10071000B1FBF0F000F0DCFA48B9102C07D200224F
:100720002146501E00F036F800206C6070BD01209C
:1007300070BD000038000020440000200C4808B5BF
:10074000816941F001018161816901F0010100913C
:10075000C16941F08051C161C06900F080500090D2
:100760000448416821F0E06141F00071416008BD3A
:100770000010024000000140002809DB00F01F02C9
:10078000012191404009800000F1E020C0F80011F3
:1007900070470000F0B40E4B1B680C46C3F30223F5
:1007A000C3F10705042D00D90425191D072901D21D
:1007B000002300E0DB1E012606FA05F1491E214058
:1007C00099409E40761E16403143F0BC00F087BF32
:1007D0000CED00E0064900F0070208684FF6FF0341
:1007E000184040EA0220034A1043086070470000A6
:1007F0000CED00E00000FA052DE9F0470F4605007A
:1008000061D0434E306800F00700B84209D230682A
:1008100020F0070038433060306800F00700B8422D
:1008200051D128683B4C810712D5400703D5606839
:1008300040F4E06060602878000703D5606840F409
:10084000605060606068A96820F0F0000843606054
:100850002878C00728D06868012810D021680228AD
:1008600010D0890700292EDA616821F003010143C5
:100870006160FFF723FF804641F288390DE021686F
:100880008903EFE78901EDE7FFF718FFA0EB080107
:10089000494502D90320BDE8F0876068696800F027
:1008A0000C00B0EB810FEFD1306800F00700B842C8
:1008B0000BD9306820F0070038433060306800F012
:1008C0000700B84201D00120E5E72878400705D5A8
:1008D0006068E96820F4E0600843606028780007F9
:1008E00006D56068296920F4605040EAC100606064
:1008F00000F038F86168084AC1F30311515CC84040
:100900000649086006480068FFF7F8FE0020C2E7C5
:100910000020024000100240E71D000844000020B3
:100920003C0000200448054900684968044AC1F3B6
:100930000221515CC8407047440000200010024072
:10094000F71D00080448054900684968044AC1F3D6
:10095000C221515CC8407047440000200010024092
:10096000F71D00080E4A51680E4801F00C03042BD5
:1009700011D0082B0FD10C48C1F38343C903C05CCD
:100980000AD55168084AC1F34041921E515C054A9C
:100990005043B0FBF1F070470449484370470000F2
:1009A0000010024000127A00D71D000800093D0027
:1009B0002DE9F84F040070D02078C04DC00749D011
:1009C0006868C0F38100012807D06868C0F381001F
:1009D000022809D16868C00306D52868800339D584
:1009E00060680028E7D035E06068B0F5803F0BD044
:1009F00010B1B0F5A02F11D0286820F48030286005
:100A0000286820F4802002E0286840F480302860C4
:100A1000606890B1FFF752FE06460AE0286840F48D
:100A200080202860F0E700BFFFF748FE801B6428A5
:100A300073D828688003F7D50CE0FFF73FFE064621
:100A400005E000BFFFF73AFE801B6428F0D8286855
:100A50008003F7D420789A4E80074FF001094FF0B9
:100A6000000839D5686810F00C0F07D06868C0F32B
:100A70008100022809D16868C00306D4286880076D
:100A800014D52069012808D110E02069B0B1C6F85A
:100A90000090FFF713FE074605E00AE1FFF70EFEA0
:100AA000C01B0228C4D828688007F7D52868616968
:100AB00020F0F80040EAC10028600DE0C6F8008090
:100AC000FFF7FCFD074604E0FFF7F8FDC01B022816
:100AD00023D828688007F7D4207800072CD57948D8
:100AE000A169D9B1C0F80090FFF7E8FD074604E01E
:100AF000FFF7E4FDC01B02280FD8686A8007F7D50E
:100B000071484FF4FA510068B0FBF1F0009000BF5B
:100B10000098411E0091FAD20EE080E0C0F80080FB
:100B2000FFF7CCFD074604E0FFF7C8FDC01B022815
:100B300075D8686A8007F7D42078400760D5E869DF
:100B40000027C00008D4E86940F08050E861E869F7
:100B5000012700F0805000905C480168C90513D45B
:100B60000168834641F480710160FFF7A7FD82466A
:100B700006E000BFFFF7A2FDA0EB0A0064284ED8F4
:100B8000DBF80000C005F5D5E06801280AD008B1FF
:100B9000052813D0286A20F001002862286A20F076
:100BA000040002E0286A40F001002862E06841F297
:100BB000883B98B1FFF782FD82460BE0286A40F03F
:100BC00004002862EEE700BFFFF778FDA0EB0A0102
:100BD00059455AD8286A8007F6D50CE0FFF76EFD14
:100BE000824605E0FFF76AFDA0EB0A0159454CD8A3
:100BF000286A8007F6D41FB1E86920F08050E861C8
:100C0000E06988B36968C1F38101022944D00228F0
:100C1000C6F8608004D0FFF751FD044638E034E0A8
:100C2000FFF74CFD074604E0FFF748FDC01B022814
:100C30002BD828688001F7D4206AB0F5803F05D111
:100C40006868A16820F4003008436860D4E90801AE
:100C50000843696821F4741108436860C6F860901D
:100C6000FFF72CFD044606E025E000BFFFF726FD58
:100C7000001B022809D828688001F7D51BE000BFB7
:100C8000FFF71CFD001B022802D90320BDE8F88FE6
:100C900028688001F4D40EE00128F7D06868226A41
:100CA00000F48031914204D1616A00F470108842EE
:100CB00001D00120EAE70020E8E700000010024030
:100CC0000000424280044242440000200070004084
:100CD00010B5401EB0F1807F01D3012010BD4FF050
:100CE000E02460610F21601700F0F9FC0020A06192
:100CF00007202061002010BD70477047F8B50168DB
:100D000004460868CA684B6910F00F0F4FF00005E1
:100D100059D003F0010602F49077374365D0C1073C
:100D200005D0D10503D5616C41F001016164410733
:100D300005D5D90703D0616C41F0020161648107D8
:100D400005D5D90703D0616C41F004016164010746
:100D500007D502F02001314303D0616C41F0080156
:100D60006164616C00293AD0800604D5900602D5F2
:100D7000204600F096FB20684069616CC0F380104B
:100D8000090700D460B3204600F064FB2068406986
:100D9000400621D52068143050E8001F21F04001A2
:100DA00040E80012002AF5D1E06BA8B16D4941631B
:100DB000E06BFFF747FB002811D0E06B416B01B0FF
:100DC000BDE8F040084783060FD593060DD52046B1
:100DD000BDE8F84000F065BB2046FFF78EFFF8BD88
:100DE0002046FFF78AFF6564F8BD266B2023012E9D
:100DF0007CD1C6067AD5D60678D5086848680090B2
:100E000048694FF00206400640D5E16B086840682B
:100E10000004000CE8D0A28D8242E5D9E085886903
:100E200020282DD020680C3050E8001F21F480715C
:100E300040E80012002AF5D12068143050E8001F65
:100E400021F0010140E80012002AF5D12068143099
:100E500050E8001F21F0400140E80012002AF5D1BF
:100E600084F84230256320680C3050E8001F21F0E0
:100E7000100140E80012002AF5D1E06BFFF7BFFA3D
:100E80006663A08DE18D401A81B22AE0A08DE18DCC
:100E9000401A81B2E08D0028A6D00029A4D0226893
:100EA0000C3252E8000F20F4907042E80007002F47
:100EB000F5D12068143050E8002F22F0010240E8FC
:100EC0000027002FF5D184F84230256320680C30CC
:100ED00050E8002F22F0100240E80023002BF5D14B
:100EE00066632046FFF708FFF8BDFFE705062BD530
:100EF000150629D594F841002128F5D1A068B0F550
:100F0000805F01D12069B0B1206A411C2162216853
:100F100000784860E08C401E0004000CE084E3D1BF
:100F20002068C16821F08001C1602068C16841F07B
:100F30004001C160D8E7206A0088C0F3080048601B
:100F4000206A801C2062E5E74006CDD55006CBD54F
:100F5000CA68204622F04002CA6084F8413000F09E
:100F60002DF9C1E74514000870B5040004D094F8C9
:100F70004100002510B106E0012070BD84F840500A
:100F8000204600F023F8242084F841002068C1683E
:100F900021F40051C160204600F0E4FA20680169A4
:100FA00021F4904101612068416921F02A014161E9
:100FB0002068C16841F40051C1606564202084F854
:100FC000410084F842006563002070BD70B586B0B2
:100FD000002400940194029403942E4E03682E4939
:100FE000022003222D4DB34226D18B6943F4804366
:100FF0008B618B6903F4804304938B6943F0040392
:101000008B618969039201F0040104910102CDE929
:10101000001069462846FFF761FA2815CDE900045B
:10102000694628460294FFF759FA0022012125203B
:10103000FFF7B0FB252028E0194EB34227D1CB693A
:1010400043F40033CB61CB6903F4003304938B6921
:1010500043F004038B618969039201F00401049158
:101060000421CDE9001069462846FFF737FA082029
:10107000CDE90004694628460294FFF72FFA0022C2
:1010800001212620FFF786FB2620FFF775FB06B01F
:1010900070BD00000038014000100240000801400F
:1010A0000044004090F84230202B01D002207047CD
:1010B00021B11AB10023036300F0B0BA01207047D8
:1010C00070B514490546006809680126124C88422B
:1010D0000BD16670062204F130010E48FFF7E2FFE3
:1010E000607D00F01DFD002060730A4928684831CA
:1010F000096888420CD10749667190310922A1F133
:101100004800FFF7CFFFA07DBDE8704000F026BD8E
:1011100070BD000048000020000000202DE9F843C9
:10112000044690F84100984616460D46202802D005
:101130000220BDE8F88385B17EB1002060642120E3
:1011400084F84100FFF7BAFAA6848146E684A068D5
:101150002027B0F5805F02D003E00120E9E7206995
:1011600010B12E4600250EE000260CE0802120461E
:1011700000F06FFAA8B9C6B116F8010B21684860F3
:10118000E08C401EE084E08C4B464FF00002CDF82E
:1011900000800028EAD14FF04001204600F059FAC3
:1011A00040B184F841700320C3E735F8020BC0F367
:1011B0000800E3E784F841700020BAE77047FEE7D3
:1011C000FEE7FEE770B50546154C602606E029B13E
:1011D000012910D0491C0229F9DB70BDE66228798B
:1011E000C00905D010B1052000F004FD0121EEE793
:1011F000062000F0FFFC5920E0622879C0F380103F
:1012000040B10028E9D0032000F0F4FC607B401CD2
:10121000607370BDBDE87040042000F0EBBC0000BE
:1012200000000020704700002DE9F0410025012456
:10123000DFF87C8006E0012C04D0022C04D0032CC3
:1012400005D103E0142702E01E2700E0282700262E
:10125000F019C0B200F054FA0B2000F0CBFC6D1C6A
:10126000761CEDB2082EF3DB98F81010D1B1082DE2
:1012700018D1012C08D0022C08D0032C08D0042C43
:1012800008D0052C08D00AE0292106E0392104E025
:10129000492102E0592100E06021C8F82C100B2000
:1012A00000F0A8FC0025641C062CC4DBBDE8F0811E
:1012B00000000020704700002DE9F05FDFF81C817E
:1012C000064601244FF0290A4FF0390B4FF0000970
:1012D000012C04D0022C04D0032C04D004E01427E9
:1012E00002E01E2700E028270025E819C0B200F020
:1012F00007FA305DE84010F0010008D0012000F04E
:1013000079FC98F80310491C88F8031003E020B911
:10131000022000F06FFCC8F82C906D1C082DE4DB57
:1013200098F803004546082826D1E87980B3012CB7
:1013300004D0022C05D0032C06D007E0C5F82CA061
:1013400004E0C5F82CB001E04920E8623078982824
:1013500002D0992804D009E0A87B38B9012003E025
:10136000A87B012802D1032000F044FC687B401CCC
:101370006873E878082821D0E87948B1012C04D0B6
:10138000022C06D0032C07D008E0C5F82CA005E0FD
:1013900014E0C5F82CB001E04920E86230789828C4
:1013A00002D0992804D009E0A87B38B9022003E0D4
:1013B000A87B012802D1042000F01CFC641C85F8E5
:1013C0000390042C84DB98F80D004446042802D1D5
:1013D000FFF774F96062BDE8F09F00000000002094
:1013E000FFF772B930B58FB028216846FEF763FF6A
:1013F00014210AA8FEF75FFF01210804CDE90010BF
:101400000024029402250491CDE907504FF4E01026
:1014100009906846FFF7CCFA08B172B6FEE70F20D4
:10142000CDE90A054FF48060CDE90C4002210AA8FD
:101430000E94FFF7E1F9002801D072B6FEE70FB075
:1014400030BD704710B5406A0021C185C184FFF7E7
:1014500054FC10BD01680C3151E8002F22F4907249
:1014600041E80023002BF5D10168143151E8002F29
:1014700022F0010241E80023002BF5D1016B012984
:1014800009D101680C3151E8002F22F0100241E827
:101490000023002BF5D1202180F8421000210163A8
:1014A000704708B590F84210222901D0022008BDEB
:1014B00082684FF480539A4201D1016921B1816A57
:1014C0009A421BD04AB10AE00268816A5268C2F3AC
:1014D00008020A80816A891C08E0026972B1026808
:1014E000526802F07F020A70816A491C8162C18DD4
:1014F000491E0904090CC18503D01BE0026852682B
:10150000F1E70168CA6822F02002CA600168CA686F
:1015100022F48072CA6001684A6922F001024A61BD
:10152000202180F8421000214163026B012A03D080
:10153000FFF7C6FD002008BD016301680C3151E8CA
:10154000002F22F0100241E80023002BF5D10168A2
:101550000A68D20602D50A6849680091818DFFF7B2
:10156000CBFBE7E770B5044600680169E26821F447
:101570004051114301612169A06808436169084332
:101580002168CA6841F20C639A430243CA6020682A
:101590004169A26921F44071114341611E492068EB
:1015A000884202D1FFF7CEF901E0FFF7BBF900EB6B
:1015B000C00101EB0012606864218000B2FBF0F30F
:1015C000B3FBF1F36FF018067343B2FBF0F5B2FB17
:1015D000F0F605EB8305322303EB0515B5FBF1F5BA
:1015E000B6FBF1F605F0F00505EB0615B2FBF0F6DB
:1015F000B2FBF0F0B0FBF1F06FF01802504306EBD5
:10160000800003EB0010B0FBF1F0216800F00F0048
:101610002844886070BD00000038014081628285E6
:10162000C28500214164222180F84210016921B164
:101630000168CA6842F48072CA6001684A6942F06F
:1016400001024A610068C16841F02001C1600020C8
:1016500070472DE9F843984617460D460446089E04
:1016600024E0701C22D0FFF729F8A0EB0800B0425C
:101670001AD8CEB12068C168490717D5802D15D07A
:10168000402D13D00168C94309070FD40168002514
:10169000406800902046FFF7DDFE0820606484F873
:1016A00040500120BDE8F8830320FBE72068006874
:1016B00035EA000004D00020B842D2D00020F1E783
:1016C0000120F9E70148FFF719BB0000480000209E
:1016D0000148FFF713BB000090000020FEE7090758
:1016E000090E002804DB00F1E02080F800147047A8
:1016F00000F00F0000F1E02080F8141D704700009A
:101700002A491438292850D2DFE800F017191B1D88
:101710001F2123254F15292B2D2F313335374F27E7
:101720003B3D3F41434547494F394F4F4F4F4F4F47
:101730004F4F4F4D4B00292036E0202034E0212030
:1017400032E0222030E023202EE024202CE025204F
:101750002AE0262028E0272026E03920C862302011
:1017600022E0312020E032201EE033201CE0342033
:101770001AE0352018E0362016E0372014E0492022
:10178000C862402010E041200EE042200CE04320DF
:101790000AE0442008E0452006E0462004E0472017
:1017A00002E0602000E05920C8627047000000207D
:1017B0000346002010B50246491E03E09C5C521C03
:1017C0002044C0B28A42F9D310BD034610B50020B0
:1017D0000522491E03E09C5C521C2044C0B28A4290
:1017E000F9D310BD70B5C0B006460D46684600F08E
:1017F000B7F8FD2269460848FEF7E6FC701929464D
:1018000010F8014C3046FFF7D3FFA04202D1034944
:101810000120887240B070BDE1000020000000206F
:1018200070B5C0B006460D46684600F099F8FD2236
:1018300069460848FEF7C8FC7019294610F8014CA3
:101840003046FFF7C2FFA04202D103490120C8720F
:1018500040B070BDE1000020000000202DE9F04103
:10186000002501273C4C0E464FF0FF38082815D0C4
:1018700009282DD00A2848D00B280DD10921374836
:10188000FFF7CEFFE07A002806D0307A012859D041
:10189000002801D1E5722575BDE8F08109212F48A6
:1018A000FFF7BEFFE07A88B1307A012801D058B145
:1018B0000CE0294929484346032217319038FFF7A5
:1018C0002DFCE572677401E0E57265746772E3E709
:1018D00009212248FFF7A4FFE07A0028DCD0607AD3
:1018E0000028D9D0307A012804D00028D4D1E5725C
:1018F000A574D1E718491948434603221A31903894
:10190000FFF70CFCE572A774C6E709211348FFF73F
:1019100087FFE07A0028BFD0607A0028BCD0307AF8
:10192000012804D00028B7D1E572E574B4E70A496C
:101930000A48434603221D319038FFF7EFFBE5725A
:10194000E774A9E74346BDE8F04103490348032291
:1019500020319038FFF7E2BB00000020D8000020C3
:1019600010B5C0B004464FF4807212496846FEF7C5
:1019700070FC1148FD2290F82C108DF804108DF8A1
:1019800032108DF81B108DF849108DF860108DF80D
:10199000BC108DF877108DF88E108DF8A5108DF88D
:1019A000D3108DF8EA1069462046FEF70DFC40B0D2
:1019B00010BD0000D81C00080000002008B5FEF78C
:1019C0008BFEFFF70FFD2F48816941F020018161F7
:1019D000816901F020010091816941F00401816178
:1019E0008069294900F00400009028484FF4E1364E
:1019F00000240160C0E901640C25C460C0E904450D
:101A00008461C461FFF7B0FA08B172B6FEE71F48FF
:101A10001F4948300160C0E90164C460C0E9044561
:101A20008461C461FFF7A0FA08B172B6FEE706222E
:101A300018491648FFF736FB144909229031A1F1E5
:101A40004800FFF72FFB134D303D687848B1062161
:101A50001048FFF7C7FE0F48FEF792FCEC736C705E
:101A600006E0687920B109486C719030FEF788FC77
:101A7000687B0428E9D10749A1F10C0000F010F9B6
:101A8000E3E7000000100240003801404800002059
:101A9000004400403000002010B508490446887A10
:101AA000002809D0002088722046FFF78BFB2046D3
:101AB000BDE81040FFF700BC10BD00000000002092
:101AC00070B50446154D002021785A2905D1217A98
:101AD000012900D009B9042803D0401C0828F3DBF1
:101AE00070BD2079652806D0662807D067280AD0FF
:101AF000682810D00DE02146082008E0687A40B13F
:101B00002146092003E0687A18B121460A20FFF730
:101B1000A5FE0520D8E721460B20F8E700000020AD
:101B200030B50D4B0124A3F130029728117803D072
:101B3000982801D0992800D121B1957835B107298D
:101B400007D000E094705854891C117000209070E8
:101B500030BDD8715470F9E73000002030B50C4A20
:101B600001240A4B11795A2800D121B1957935B158
:101B7000082907D000E094715854491C11710020C5
:101B8000907130BD18725471F9E70000D800002040
:101B9000000000202DE9F047154CA07B002825D03F
:101BA000012539274FF0290A4FF049084FF059090C
:101BB000002608E0012D06D0022D07D0032D07D006
:101BC000042D0AD107E0C4F82CA006E0E76204E087
:101BD000C4F82C8001E0C4F82C90E07918B10320FF
:101BE00000F008F826726D1C052DE3DBBDE8F087D8
:101BF0000000002010B5C0B004466846FFF7B0FEF4
:101C0000FD2269462548FEF7DFFA4FF0FF330D2C21
:101C100041D2DFE804F040070D13181E242A40408B
:101C2000403036001D4917221731A1F168002DE020
:101C30001A4917222E31A1F17F0027E017491722F8
:101C4000A1F1510022E0154917224531A1F196007A
:101C50001CE0124917225C31A1F1AD0016E00F49DA
:101C600017227331A1F1C40010E00C4917228A3108
:101C7000A1F1DB000AE009491722CF31A1F59070EC
:101C800004E006491722E631A1F2371040B0BDE862
:101C90001040FFF743BA40B010BD0000E100002043
:101CA00070B50D460646FEF709FD0A4CE17900299C
:101CB0000ED03168401AB0F5FA6F09D9A07B002820
:101CC00006D10120A0732846FFF764FF002060734F
:101CD00070BD0000000000205AA514820000776F3C
:101CE000726B696E67000000000000000000005A7F
:101CF000A5148200007375636365737366756C0069
:101D00000000000000005AA5148200006661696CA2
:101D1000656400000000000000000000005AA514E7
:101D20008200006572726F72000000000000000007
:101D3000000000005AA514820000636C6F73656494
:101D40006C6F6F70000000000000005AA514820044
:101D50000069646C650000000000000000000000E5
:101D600000005AA514820000756E6B6E6F776E00CE
:101D70000000000000000000005AA5148200006E60
:101D80006F74656E6F7567680000000000000000EA
:101D90005AA514820000656E6F7567680000000028
:101DA000000000000000005AA5148200004E2F41E0
:101DB00000000000000000000000000000005AA524
:101DC0001482000077616974696E6720746F2073F4
:101DD0006574207570010202030405060708090AEC
:101DE0000B0C0D0E0F101000000000000000000191
:101DF00002030406070809000000000102030400B2
:101E0000201E0008000000204800000028010008F3
:101E1000681E000848000020F80700004401000880
:101E200000000000000000000000000000000000B2
:101E30000000000000000099009999019A99029B06
:101E400099039C000000000000000000000000005A
:101E50000000000000000000010000001000000071
:081E60000000000000127A00EE
:04000005080000ED02
:00000001FF
