:020000040800F2
:1000000040080020890100087F1100087B110008CA
:100010007D1100087F0300088D1500080000000016
:10002000000000000000000000000000ED110008CA
:10003000DD03000800000000BF1100089112000855
:10004000A3010008A3010008A3010008A301000800
:10005000A3010008A3010008A3010008A3010008F0
:10006000A3010008A3010008A3010008A3010008E0
:10007000A3010008A3010008A3010008A3010008D0
:10008000A3010008A3010008A3010008A3010008C0
:10009000A3010008A3010008A3010008A3010008B0
:1000A000A3010008A3010008A3010008A3010008A0
:1000B000A3010008A3010008A3010008A301000890
:1000C000A3010008A3010008A3010008A301000880
:1000D000A30100087515000881150008A301000898
:1000E000A3010008A3010008A301000800F002F822
:1000F00000F03AF80AA090E8000C82448344AAF188
:100100000107DA4501D100F02FF8AFF2090EBAE885
:100110000F0013F0010F18BFFB1A43F0010318473B
:10012000B8190000D8190000103A24BF78C878C167
:10013000FAD8520724BF30C830C144BF04680C60ED
:10014000704700000023002400250026103A28BF35
:1001500078C1FBD8520728BF30C148BF0B60704739
:100160001FB51FBD10B510BD00F0CFF81146FFF749
:10017000F7FF01F0DDFA00F0EDF803B4FFF7F2FF4E
:1001800003BC00F0F5F80000094880470948004723
:10019000FEE7FEE7FEE7FEE7FEE7FEE7FEE7FEE737
:1001A000FEE7FEE704480549054A064B7047000094
:1001B000F3120008ED000008400200204008002073
:1001C0004004002040040020032A40F2308010F058
:1001D000030C00F0158011F8013BBCF1020F6244E2
:1001E00098BF11F801CB00F8013B38BF11F8013B73
:1001F000A2F1040298BF00F801CB38BF00F8013B20
:1002000011F0030300F02580083AC0F0088051F88F
:10021000043B083A51F804CBA0E80810F5E7121D9A
:100220005CBF51F8043B40F8043BAFF30080D207B9
:1002300024BF11F8013B11F801CB48BF11F8012B85
:1002400024BF00F8013B00F801CB48BF00F8012BA8
:10025000704710B5203AC0F00B80B1E81850203A32
:10026000A0E81850B1E81850A0E81850BFF4F5AF56
:100270005FEA027C24BFB1E81850A0E8185044BFE0
:1002800018C918C0BDE810405FEA827C24BF51F84D
:10029000043B40F8043B08BF7047D20728BF31F841
:1002A000023B48BF11F8012B28BF20F8023B48BF92
:1002B00000F8012B70474FF0000200B5134694463A
:1002C0009646203922BFA0E80C50A0E80C50B1F1AE
:1002D0002001BFF4F7AF090728BFA0E80C5048BFC2
:1002E0000CC05DF804EB890028BF40F8042B08BF60
:1002F000704748BF20F8022B11F0804F18BF00F85C
:10030000012B7047704770477047754600F02CF816
:10031000AE4605006946534620F00700854618B0F2
:1003200020B5FFF73FFFBDE820404FF000064FF03B
:1003300000074FF000084FF0000B21F00701AC461A
:10034000ACE8C009ACE8C009ACE8C009ACE8C00939
:100350008D46704710B50446AFF300802046BDE8D7
:100360001040FFF70ABF000000487047DC01002082
:1003700001491820ABBEFEE7260002007047FEE7E9
:100380002DE9F0410024144D06460127A04630789F
:10039000972804D098280AD099280FD016E0301951
:1003A000407898B90C482C3000F00AFF0EE00A485B
:1003B0002F7206212C3001F021FA07E085F8088021
:1003C000687B18B104482C3001F048FA641C052CF5
:1003D000DDDBBDE8F081000000000020704710B5B3
:1003E00090F821100022022905D00421816380F8B1
:1003F0002020012010BD01680B6823F00E030B6064
:1004000001680B6823F001030B6090F84030C46B67
:10041000012101FA03F3636080F8211080F82020A5
:10042000104610BD10B590F821100024022903D009
:100430000421816301243DE001680A6822F00E0274
:100440000A6001680A6822F001020A601A4A01681B
:10045000914201D1012121E0174A1432914201D188
:1004600010211BE0144A2832914201D1891515E070
:10047000114A3C32914201D189140FE00E4A5032A8
:10048000914202D14FF4803108E00B4A643291422C
:1004900002D14FF4801101E04FF08071064A083A12
:1004A0005160012180F82110002180F82010416B5B
:1004B00001B18847204610BD080002402DE9F84FE1
:1004C000DFF8B8910024A9F1040B23460F2709F1A6
:1004D000040AABF1040EC9E00125A5402A40AA4256
:1004E0007DD1674ED1F804C0ACEB0608B44532D0DC
:1004F00014DCBCF1030F3AD009DCBCF1000F2AD0A8
:10050000BCF1010F1CD0BCF1020F31D11DE0BCF1D8
:10051000110F17D0BCF1120F2AD119E0B8F5881FBE
:1005200019D006DCB8F5803F15D0B8F5801F1FD173
:1005300011E0B8F5001F0ED0B8F5041F18D10AE07D
:10054000CB6815E0CB681B1D12E0CB6808330FE0C9
:10055000CB680C330CE08B682BB1012B4FF00803F8
:1005600003D0456104E0042302E0056100E00023BC
:10057000FF2A01D8064601E000F104064FEA84058F
:1005800001D9A5F12005D6F8008007FA05FC28EA74
:100590000C0803FA05F548EA0508C6F800804D681E
:1005A000ED0062D5374DAE6946F00106AE61AD692A
:1005B00024F0030605F001050095334D06EB050C0C
:1005C000DCF80850A607360F07FA06F825EA0805F2
:1005D000DFF8B880404503D14FF0000817E044E051
:1005E000DFF8AC80404502D14FF001080FE0DFF8A2
:1005F000A480404502D14FF0020808E0DFF898805F
:10060000404502D14FF0030801E04FF0040808FA1A
:1006100006F848EA0508CCF808804D68D9F800606B
:10062000ED024D4601D5164300E096432E604D681D
:10063000DAF80060AD02554601D5164300E0964356
:100640002E604D68DBF80060AD035D4601D51643B2
:1006500000E096432E604D68DEF80060ED037546BD
:1006600001D5164300E096432E60641C0D682A46AF
:10067000E5407FF431AFBDE8F88F00000804014089
:10068000000011100010024000000140000801406D
:10069000000C014000100140001401400148806836
:1006A000704700003C000020024881680278114435
:1006B000816070473C000020074810B5016841F098
:1006C00010010160032000F075F80F2000F006F81B
:1006D00000F024F8002010BD0020024070B50D4D40
:1006E00004464FF47A712878B1FBF0F00A490968A2
:1006F000B1FBF0F000F0DCFA48B9102C07D2002270
:100700002146501E00F036F800206C6070BD0120BC
:1007100070BD00003C000020480000200C4808B5D7
:10072000816941F001018161816901F0010100915C
:10073000C16941F08051C161C06900F080500090F2
:100740000448416821F0E06141F00071416008BD5A
:100750000010024000000140002809DB00F01F02E9
:10076000012191404009800000F1E020C0F8001113
:1007700070470000F0B40E4B1B680C46C3F3022315
:10078000C3F10705042D00D90425191D072901D23D
:10079000002300E0DB1E012606FA05F1491E214078
:1007A00099409E40761E16403143F0BC00F0EFBEEB
:1007B0000CED00E0064900F0070208684FF6FF0361
:1007C000184040EA0220034A1043086070470000C6
:1007D0000CED00E00000FA052DE9F0470F4605009A
:1007E00061D0434E306800F00700B84209D230684B
:1007F00020F0070038433060306800F00700B8424E
:1008000051D128683B4C810712D5400703D5606859
:1008100040F4E06060602878000703D5606840F429
:10082000605060606068A96820F0F0000843606074
:100830002878C00728D06868012810D021680228CD
:1008400010D0890700292EDA616821F003010143E5
:100850006160FFF723FF804641F288390DE021688F
:100860008903EFE78901EDE7FFF718FFA0EB080127
:10087000494502D90320BDE8F0876068696800F047
:100880000C00B0EB810FEFD1306800F00700B842E8
:100890000BD9306820F0070038433060306800F032
:1008A0000700B84201D00120E5E72878400705D5C8
:1008B0006068E96820F4E060084360602878000719
:1008C00006D56068296920F4605040EAC100606084
:1008D00000F038F86168084AC1F30311515CC84060
:1008E0000649086006480068FFF7F8FE0020C2E7E6
:1008F0000020024000100240BF1A000848000020FB
:10090000400000200448054900684968044AC1F3D2
:100910000221515CC840704748000020001002408E
:10092000CF1A00080448054900684968044AC1F321
:10093000C221515CC84070474800002000100240AE
:10094000CF1A00080E4A51680E4801F00C03042B20
:1009500011D0082B0FD10C48C1F38343C903C05CED
:100960000AD55168084AC1F34041921E515C054ABC
:100970005043B0FBF1F07047044948437047000012
:100980000010024000127A00AF1A000800093D0072
:100990002DE9F84F040070D02078C04DC00749D031
:1009A0006868C0F38100012807D06868C0F381003F
:1009B000022809D16868C00306D52868800339D5A4
:1009C00060680028E7D035E06068B0F5803F0BD064
:1009D00010B1B0F5A02F11D0286820F48030286025
:1009E000286820F4802002E0286840F480302860E5
:1009F000606890B1FFF752FE06460AE0286840F4AE
:100A000080202860F0E700BFFFF748FE801B6428C5
:100A100073D828688003F7D50CE0FFF73FFE064641
:100A200005E000BFFFF73AFE801B6428F0D8286875
:100A30008003F7D420789A4E80074FF001094FF0D9
:100A4000000839D5686810F00C0F07D06868C0F34B
:100A50008100022809D16868C00306D4286880078D
:100A600014D52069012808D110E02069B0B1C6F87A
:100A70000090FFF713FE074605E00AE1FFF70EFEC0
:100A8000C01B0228C4D828688007F7D52868616988
:100A900020F0F80040EAC10028600DE0C6F80080B0
:100AA000FFF7FCFD074604E0FFF7F8FDC01B022836
:100AB00023D828688007F7D4207800072CD57948F8
:100AC000A169D9B1C0F80090FFF7E8FD074604E03E
:100AD000FFF7E4FDC01B02280FD8686A8007F7D52E
:100AE00071484FF4FA510068B0FBF1F0009000BF7C
:100AF0000098411E0091FAD20EE080E0C0F800801C
:100B0000FFF7CCFD074604E0FFF7C8FDC01B022835
:100B100075D8686A8007F7D42078400760D5E869FF
:100B20000027C00008D4E86940F08050E861E86917
:100B3000012700F0805000905C480168C90513D47B
:100B40000168834641F480710160FFF7A7FD82468A
:100B500006E000BFFFF7A2FDA0EB0A0064284ED814
:100B6000DBF80000C005F5D5E06801280AD008B11F
:100B7000052813D0286A20F001002862286A20F096
:100B8000040002E0286A40F001002862E06841F2B7
:100B9000883B98B1FFF782FD82460BE0286A40F05F
:100BA00004002862EEE700BFFFF778FDA0EB0A0122
:100BB00059455AD8286A8007F6D50CE0FFF76EFD34
:100BC000824605E0FFF76AFDA0EB0A0159454CD8C3
:100BD000286A8007F6D41FB1E86920F08050E861E8
:100BE000E06988B36968C1F38101022944D0022811
:100BF000C6F8608004D0FFF751FD044638E034E0C9
:100C0000FFF74CFD074604E0FFF748FDC01B022834
:100C10002BD828688001F7D4206AB0F5803F05D131
:100C20006868A16820F4003008436860D4E90801CE
:100C30000843696821F4741108436860C6F860903D
:100C4000FFF72CFD044606E025E000BFFFF726FD78
:100C5000001B022809D828688001F7D51BE000BFD7
:100C6000FFF71CFD001B022802D90320BDE8F88F06
:100C700028688001F4D40EE00128F7D06868226A61
:100C800000F48031914204D1616A00F4701088420E
:100C900001D00120EAE70020E8E700000010024050
:100CA00000004242800442424800002000700040A0
:100CB00010B5401EB0F1807F01D3012010BD4FF070
:100CC000E02460610F21601700F061FC0020A0614A
:100CD00007202061002010BD70477047F8B50168FB
:100CE00004460868CA684B6910F00F0F4FF0000502
:100CF00059D003F0010602F49077374365D0C1075D
:100D000005D0D10503D5616C41F001016164410753
:100D100005D5D90703D0616C41F0020161648107F8
:100D200005D5D90703D0616C41F004016164010766
:100D300007D502F02001314303D0616C41F0080176
:100D40006164616C00293AD0800604D5900602D512
:100D5000204600F0FEFA20684069616CC0F3801004
:100D6000090700D460B3204600F0CCFA206840693F
:100D7000400621D52068143050E8001F21F04001C2
:100D800040E80012002AF5D1E06BA8B16D4941633B
:100D9000E06BFFF747FB002811D0E06B416B01B01F
:100DA000BDE8F040084783060FD593060DD52046D1
:100DB000BDE8F84000F0CDBA2046FFF78EFFF8BD41
:100DC0002046FFF78AFF6564F8BD266B2023012EBD
:100DD0007CD1C6067AD5D60678D5086848680090D2
:100DE00048694FF00206400640D5E16B086840684C
:100DF0000004000CE8D0A28D8242E5D9E085886924
:100E000020282DD020680C3050E8001F21F480717C
:100E100040E80012002AF5D12068143050E8001F85
:100E200021F0010140E80012002AF5D120681430B9
:100E300050E8001F21F0400140E80012002AF5D1DF
:100E400084F84230256320680C3050E8001F21F000
:100E5000100140E80012002AF5D1E06BFFF7BFFA5D
:100E60006663A08DE18D401A81B22AE0A08DE18DEC
:100E7000401A81B2E08D0028A6D00029A4D02268B3
:100E80000C3252E8000F20F4907042E80007002F67
:100E9000F5D12068143050E8002F22F0010240E81C
:100EA0000027002FF5D184F84230256320680C30EC
:100EB00050E8002F22F0100240E80023002BF5D16B
:100EC00066632046FFF708FFF8BDFFE705062BD550
:100ED000150629D594F841002128F5D1A068B0F570
:100EE000805F01D12069B0B1206A411C2162216874
:100EF00000784860E08C401E0004000CE084E3D1E0
:100F00002068C16821F08001C1602068C16841F09B
:100F10004001C160D8E7206A0088C0F3080048603B
:100F2000206A801C2062E5E74006CDD55006CBD56F
:100F3000CA68204622F04002CA6084F8413000F0BE
:100F40001BF9C1E7F512000870B5040004D094F84D
:100F50004100002510B106E0012070BD84F840502A
:100F6000204600F023F8242084F841002068C1685E
:100F700021F40051C160204600F04CFA206801695C
:100F800021F4904101612068416921F02A01416109
:100F90002068C16841F40051C1606564202084F874
:100FA000410084F842006563002070BD70B586B0D2
:100FB000002400940194029403942E4E03682E4959
:100FC000022003222D4DB34226D18B6943F4804386
:100FD0008B618B6903F4804304938B6943F00403B2
:100FE0008B618969039201F0040104910102CDE94A
:100FF000001069462846FFF761FA2815CDE900047C
:10100000694628460294FFF759FA0022012125205B
:10101000FFF7B0FB252028E0194EB34227D1CB695A
:1010200043F40033CB61CB6903F4003304938B6941
:1010300043F004038B618969039201F00401049178
:101040000421CDE9001069462846FFF737FA082049
:10105000CDE90004694628460294FFF72FFA0022E2
:1010600001212620FFF786FB2620FFF775FB06B03F
:1010700070BD00000038014000100240000801402F
:101080000044004090F84230202B01D002207047ED
:1010900021B11AB10023036300F018BA0120704790
:1010A00010B50B490068096888420FD1094C01202E
:1010B0000622607004F12C010548FFF7E3FF207D54
:1010C00000F0AEFB0020E071A073E07310BD0000E3
:1010D0004C000020000000202DE9F843044690F861
:1010E0004100984616460D46202802D00220BDE851
:1010F000F88385B17EB100206064212084F841002E
:10110000FFF7CCFAA6848146E684A0682027B0F5D4
:10111000805F02D003E00120E9E7206910B12E468C
:1011200000250EE000260CE08021204600F0E9F9C1
:10113000A8B9C6B116F8010B21684860E08C401EC2
:10114000E084E08C4B464FF00002CDF80080002890
:10115000EAD14FF04001204600F0D3F940B184F8C5
:1011600041700320C3E735F8020BC0F30800E3E742
:1011700084F841700020BAE77047FEE7FEE7FEE71B
:1011800010B504463C2000F013FA2079C00911D0B4
:1011900010B1052000F094FB3D2000F009FA207901
:1011A000C0F3801040B1002808D00320BDE81040F3
:1011B00000F086BB0620EDE70420F7E710BD70477E
:1011C00010B50024E0B200F0F3F90B2000F078FB3A
:1011D000641C062CF6DB04490020087048708870F7
:1011E00008734873486210BD00000020704700007B
:1011F0002DE9F041254C80460126012E04D0022E17
:1012000004D0032E04D004E0142502E01E2500E0E3
:10121000282500277819C0B200F0CAF918F806008E
:10122000F84010F00100607515D0012000F048FB77
:10123000E078401CC0B2E07008281CD1207AD0B100
:1012400005F1090000F0B4F9012000F039FBFFF7C7
:1012500025FA60620FE070B9022000F031FBE078FF
:10126000082808D0207A30B105F1090000F0A0F973
:10127000022000F025FB7F1C082FCBDB0020761C12
:10128000E070042EB9DBBDE8F08100000000002012
:10129000FFF70ABA30B58FB028216846FFF70BF880
:1012A00014210AA8FFF707F801210804CDE900106E
:1012B0000024029402250491CDE907504FF4E01078
:1012C00009906846FFF764FB08B172B6FEE70F208D
:1012D000CDE90A054FF48060CDE90C4002210AA84F
:1012E0000E94FFF779FA002801D072B6FEE70FB02E
:1012F00030BD704710B5406A0021C185C184FFF739
:10130000ECFC10BD01680C3151E8002F22F4907202
:1013100041E80023002BF5D10168143151E8002F7A
:1013200022F0010241E80023002BF5D1016B0129D5
:1013300009D101680C3151E8002F22F0100241E878
:101340000023002BF5D1202180F8421000210163F9
:10135000704708B590F84210222901D0022008BD3C
:1013600082684FF480539A4201D1016921B1816AA8
:101370009A421BD04AB10AE00268816A5268C2F3FD
:1013800008020A80816A891C08E0026972B1026859
:10139000526802F07F020A70816A491C8162C18D25
:1013A000491E0904090CC18503D01BE0026852687C
:1013B000F1E70168CA6822F02002CA600168CA68C1
:1013C00022F48072CA6001684A6922F001024A610F
:1013D000202180F8421000214163026B012A03D0D2
:1013E000FFF75EFE002008BD016301680C3151E883
:1013F000002F22F0100241E80023002BF5D10168F4
:101400000A68D20602D50A6849680091818DFFF703
:1014100063FCE7E770B5044600680169E26821F4FF
:101420004051114301612169A06808436169084383
:101430002168CA6841F20C639A430243CA6020687B
:101440004169A26921F44071114341611E4920683C
:10145000884202D1FFF766FA01E0FFF753FA00EB8A
:10146000C00101EB0012606864218000B2FBF0F360
:10147000B3FBF1F36FF018067343B2FBF0F5B2FB68
:10148000F0F605EB8305322303EB0515B5FBF1F50B
:10149000B6FBF1F605F0F00505EB0615B2FBF0F62C
:1014A000B2FBF0F0B0FBF1F06FF01802504306EB26
:1014B000800003EB0010B0FBF1F0216800F00F009A
:1014C0002844886070BD0000003801408162828538
:1014D000C28500214164222180F84210016921B1B6
:1014E0000168CA6842F48072CA6001684A6942F0C1
:1014F00001024A610068C16841F02001C16000201A
:1015000070472DE9F843984617460D460446089E55
:1015100024E0701C22D0FFF7C1F8A0EB0800B04215
:101520001AD8CEB12068C168490717D5802D15D0CB
:10153000402D13D00168C94309070FD40168002565
:10154000406800902046FFF7DDFE0820606484F8C4
:1015500040500120BDE8F8830320FBE720680068C5
:1015600035EA000004D00020B842D2D00020F1E7D4
:101570000120F9E70148FFF7B1BB00004C00002053
:101580000148FFF7ABBB000094000020FEE709070D
:10159000090E002804DB00F1E02080F800147047F9
:1015A00000F00F0000F1E02080F8141D70470000EB
:1015B000452229491438292847D2DFE800F01719B5
:1015C0001B1D1F2123254615292B2D2F3133353780
:1015D00046273B3D3F4143454545463946464646FD
:1015E0004646464646494700292032E0202030E062
:1015F00021202EE022202CE023202AE0242028E0B5
:10160000252026E0262024E0272022E039208862B9
:1016100030201EE031201CE032201AE0332018E098
:10162000342016E0352014E0362012E0372010E098
:101630004920886240200CE041200AE0422008E076
:10164000432006E0442004E08A627047602000E006
:1016500061208862704700000000002003460020DF
:1016600010B50246491E03E09C5C521C2044C0B2E7
:101670008A42F9D310BD000070B5C0B006460D46D1
:10168000684600F027F8FD2269461048FEF7E1FDA4
:101690007019294610F8014C3046FFF7DFFF4FF074
:1016A000FF33A04208D10A49012017228872074956
:1016B000B831A1F5A47004E004491722A131A1F2C8
:1016C000311040B0BDE87040FFF706BDDC000020DF
:1016D0000000002010B5C0B004464FF480721249DB
:1016E0006846FEF7B6FD1148FD2290F828108DF8E7
:1016F00004108DF832108DF81B108DF849108DF8FC
:1017000060108DF8BC108DF877108DF88E108DF864
:10171000A5108DF8D3108DF8EA1069462046FEF723
:1017200053FD40B010BD0000B019000800000020BB
:1017300008B5FEF7C1FFFFF7ADFD2B48816941F009
:1017400020018161816901F020010091816941F0EE
:10175000040181618069254900F00400009024485B
:101760004FF4E13600240160C0E901640C25C46037
:10177000C0E904458461C461FFF7E6FB08B172B6B5
:10178000FEE71B481B4948300160C0E90164C460A2
:10179000C0E904458461C461FFF7D6FB08B172B6A5
:1017A000FEE7062214491248FFF76CFC1249104864
:1017B0000822891D4830FFF765FC0F4D2C3D6878E5
:1017C00038B106210C48FFF757FF0B48FEF7D8FD4C
:1017D0006C70E8780828F2D10749183901F1100037
:1017E00000F0C4F8EBE700000010024000380140B0
:1017F0004C000020004400402C000020074910B598
:101800008A7A002A09D000228A72FFF7F1FC034885
:10181000BDE810402C30FFF7B3BC10BD0000002025
:1018200030B50D4B0124A3F12C029728117803D079
:10183000982801D0992800D121B1957835B1062991
:1018400007D000E094705854891C117000209070EB
:1018500030BD98715470F9E72C00002070B5174E18
:10186000707B002828D0012508E0012D06D0022D2C
:1018700006D0032D06D0042D07D105E0142404E082
:101880001E2402E0282400E03224F0780828307A70
:1018900001D038B10DE060B904F10900FFF788FE0E
:1018A000032004E004F10900FFF782FE042000F0A9
:1018B00007F86D1C052DD8DB70BD0000000000206E
:1018C00010B5C0B004466846FFF704FFFD22694624
:1018D0002548FEF7BEFC4FF0FF330D2C41D2DFE868
:1018E00004F040070D13181E242A404040303600F3
:1018F0001D4917221731A1F15F002DE01A49172267
:101900002E31A1F1760027E017491722A1F14800F6
:1019100022E0154917224531A1F18D001CE0124942
:1019200017225C31A1F1A40016E00F491722733190
:10193000A1F1BB0010E00C4917228A31A1F1D200BD
:101940000AE009491722CF31A1F2171004E0064935
:101950001722E631A1F5977040B0BDE81040FFF7BF
:10196000BBBB40B010BD0000DC00002070B50F4CC8
:1019700006460D46207A002816D0FEF78FFE316805
:10198000401AB0F5FA6F0FD9607B00280CD1E078CF
:10199000002809D1012060732846FFF75FFF284621
:1019A000BDE87040FFF7ECBB70BD000000000020F8
:1019B0005AA514820000776F726B696E6700000091
:1019C000000000000000005AA51482000073756337
:1019D0006365737366756C000000000000005AA513
:1019E000148200006661696C6564000000000000FC
:1019F00000000000005AA5148200006572726F7228
:101A00000000000000000000000000005AA5148241
:101A10000000636C6F7365646C6F6F700000000092
:101A20000000005AA51482000069646C6500000083
:101A3000000000000000000000005AA51482000011
:101A4000756E6B6E6F776E00000000000000000086
:101A5000005AA5148200006E6F74656E6F7567681A
:101A600000000000000000005AA514820000656E0E
:101A70006F75676800000000000000000000005A59
:101A8000A5148200004E2F4100000000000000005D
:101A90000000000000005AA51482000077616974FC
:101AA000696E6720746F207365742075700102027F
:101AB000030405060708090A0B0C0D0E0F10100091
:101AC00000000000000000010203040607080900EE
:101AD0000000000102030400F81A000800000020C2
:101AE0004C00000028010008441B00084C000020A6
:101AF000F40700004401000800000000000000009E
:101B0000000000000000000000000000000099003C
:101B10009999019A99029B99039C0000000000008A
:101B200000000000000000000000000000000000B5
:101B30000000000001000000100000000000000094
:041B400000127A0015
:04000005080000ED02
:00000001FF
